{
  "_format": "hh-sol-artifact-1",
  "contractName": "ZKVerifier",
  "sourceName": "contracts/ZKVerifier.sol",
  "abi": [
    {
      "inputs": [
        {
          "internalType": "address",
          "name": "semaphoreAddress",
          "type": "address"
        },
        {
          "internalType": "address",
          "name": "goodyBagAddress",
          "type": "address"
        }
      ],
      "stateMutability": "nonpayable",
      "type": "constructor"
    },
    {
      "anonymous": false,
      "inputs": [
        {
          "indexed": false,
          "internalType": "uint256",
          "name": "groupId",
          "type": "uint256"
        }
      ],
      "name": "Claim",
      "type": "event"
    },
    {
      "anonymous": false,
      "inputs": [
        {
          "indexed": false,
          "internalType": "uint256",
          "name": "identityCommitment",
          "type": "uint256"
        },
        {
          "indexed": false,
          "internalType": "bytes32",
          "name": "username",
          "type": "bytes32"
        },
        {
          "indexed": false,
          "internalType": "uint256",
          "name": "groupId",
          "type": "uint256"
        }
      ],
      "name": "NewUser",
      "type": "event"
    },
    {
      "inputs": [
        {
          "internalType": "uint256",
          "name": "groupId",
          "type": "uint256"
        },
        {
          "internalType": "address",
          "name": "recipient",
          "type": "address"
        },
        {
          "internalType": "uint256",
          "name": "merkleTreeRoot",
          "type": "uint256"
        },
        {
          "internalType": "uint256",
          "name": "nullifierHash",
          "type": "uint256"
        },
        {
          "internalType": "uint256[8]",
          "name": "proof",
          "type": "uint256[8]"
        }
      ],
      "name": "claim",
      "outputs": [],
      "stateMutability": "nonpayable",
      "type": "function"
    },
    {
      "inputs": [
        {
          "internalType": "uint256",
          "name": "groupId",
          "type": "uint256"
        },
        {
          "internalType": "string",
          "name": "_uri",
          "type": "string"
        }
      ],
      "name": "createGroup",
      "outputs": [],
      "stateMutability": "nonpayable",
      "type": "function"
    },
    {
      "inputs": [],
      "name": "goodyBag",
      "outputs": [
        {
          "internalType": "contract IGoodyBag",
          "name": "",
          "type": "address"
        }
      ],
      "stateMutability": "view",
      "type": "function"
    },
    {
      "inputs": [
        {
          "internalType": "uint256",
          "name": "",
          "type": "uint256"
        }
      ],
      "name": "groupIds",
      "outputs": [
        {
          "internalType": "bool",
          "name": "",
          "type": "bool"
        }
      ],
      "stateMutability": "view",
      "type": "function"
    },
    {
      "inputs": [
        {
          "internalType": "uint256",
          "name": "identityCommitment",
          "type": "uint256"
        },
        {
          "internalType": "bytes32",
          "name": "username",
          "type": "bytes32"
        },
        {
          "internalType": "uint256",
          "name": "groupId",
          "type": "uint256"
        }
      ],
      "name": "joinGroup",
      "outputs": [],
      "stateMutability": "nonpayable",
      "type": "function"
    },
    {
      "inputs": [],
      "name": "semaphore",
      "outputs": [
        {
          "internalType": "contract ISemaphore",
          "name": "",
          "type": "address"
        }
      ],
      "stateMutability": "view",
      "type": "function"
    },
    {
      "inputs": [
        {
          "internalType": "uint256",
          "name": "",
          "type": "uint256"
        }
      ],
      "name": "users",
      "outputs": [
        {
          "internalType": "bytes32",
          "name": "",
          "type": "bytes32"
        }
      ],
      "stateMutability": "view",
      "type": "function"
    }
  ],
  "bytecode": "0x608060405234801561001057600080fd5b506040516107e73803806107e783398101604081905261002f9161007c565b600080546001600160a01b039384166001600160a01b031991821617909155600180549290931691161790556100ae565b80516001600160a01b038116811461007757600080fd5b919050565b6000806040838503121561008e578182fd5b61009783610060565b91506100a560208401610060565b90509250929050565b61072a806100bd6000396000f3fe608060405234801561001057600080fd5b506004361061007d5760003560e01c80637b5d25341161005b5780637b5d2534146100fd5780639fbd7cef14610128578063a41e6ceb1461013b578063a8f34c4f1461014e57600080fd5b8063365b98b2146100825780634093d7a1146100b55780637363d601146100e8575b600080fd5b6100a261009036600461054b565b60036020526000908152604090205481565b6040519081526020015b60405180910390f35b6100d86100c336600461054b565b60026020526000908152604090205460ff1681565b60405190151581526020016100ac565b6100fb6100f63660046105e0565b610161565b005b600054610110906001600160a01b031681565b6040516001600160a01b0390911681526020016100ac565b6100fb61013636600461060b565b610277565b6100fb61014936600461057b565b6103e2565b600154610110906001600160a01b031681565b60008181526002602052604090205460ff166101ba5760405162461bcd60e51b815260206004820152601360248201527219dc9bdd5c08191bd95cdb89dd08195e1a5cdd606a1b60448201526064015b60405180910390fd5b600054604051631783efc360e01b815260048101839052602481018590526001600160a01b0390911690631783efc390604401600060405180830381600087803b15801561020757600080fd5b505af115801561021b573d6000803e3d6000fd5b50505060008481526003602090815260409182902085905581518681529081018590529081018390527ff0f9187b0e1f889787a86b4bd852ab0163cc232c9587b3dd32321d727d09996b915060600160405180910390a1505050565b60008381526002602052604090205460ff16156102cd5760405162461bcd60e51b815260206004820152601460248201527367726f757020616c72656164792065786973747360601b60448201526064016101b1565b600083815260026020526040808220805460ff191660011790558154905163059f1bb560e01b8152600481018690526014602482015260448101929092523060648301526001600160a01b03169063059f1bb590608401600060405180830381600087803b15801561033e57600080fd5b505af1158015610352573d6000803e3d6000fd5b50506001546040516336d0e30560e01b81526001600160a01b0390911692506336d0e305915061038a90869086908690600401610682565b602060405180830381600087803b1580156103a457600080fd5b505af11580156103b8573d6000803e3d6000fd5b505050506040513d601f19601f820116820180604052508101906103dc9190610563565b50505050565b60008581526002602052604090205460ff166104365760405162461bcd60e51b815260206004820152601360248201527219dc9bdd5c08191bd95cdb89dd08195e1a5cdd606a1b60448201526064016101b1565b6000546040516345b4988560e11b81526001600160a01b03808716921690638b69310a9061047290899088908690899084908a906004016106b8565b600060405180830381600087803b15801561048c57600080fd5b505af11580156104a0573d6000803e3d6000fd5b50506001546040516340c10f1960e01b81526001600160a01b038981166004830152602482018b905290911692506340c10f199150604401600060405180830381600087803b1580156104f257600080fd5b505af1158015610506573d6000803e3d6000fd5b505050507f7bb2b3c10797baccb6f8c4791f1edd6ca2f0d028ee0eda64b01a9a57e3a653f78660405161053b91815260200190565b60405180910390a1505050505050565b60006020828403121561055c578081fd5b5035919050565b600060208284031215610574578081fd5b5051919050565b6000806000806000610180808789031215610594578182fd5b8635955060208701356001600160a01b03811681146105b1578283fd5b945060408701359350606087013592508087018810156105cf578182fd5b506080860190509295509295909350565b6000806000606084860312156105f4578283fd5b505081359360208301359350604090920135919050565b60008060006040848603121561061f578283fd5b83359250602084013567ffffffffffffffff8082111561063d578384fd5b818601915086601f830112610650578384fd5b81358181111561065e578485fd5b87602082850101111561066f578485fd5b6020830194508093505050509250925092565b83815260406020820152816040820152818360608301376000818301606090810191909152601f909201601f1916010192915050565b60006101a0820190508782528660208301528560408301528460608301528360808301526101008360a08401376000815297965050505050505056fea26469706673582212206af3808e12c0490f9226060ba55810619e7e07b9bfce5bfcca78ad04db46850b64736f6c63430008040033",
  "linkReferences": {},
  "deployedLinkReferences": {}
}